{
  "_format": "hh-sol-artifact-1",
  "contractName": "LaxmiCryptFund",
  "sourceName": "contracts/LaxmiCryptFund.sol",
  "abi": [
    {
      "inputs": [],
      "stateMutability": "payable",
      "type": "constructor"
    },
    {
      "anonymous": false,
      "inputs": [
        {
          "indexed": true,
          "internalType": "address",
          "name": "investor",
          "type": "address"
        },
        {
          "indexed": false,
          "internalType": "string",
          "name": "result",
          "type": "string"
        },
        {
          "indexed": false,
          "internalType": "uint256",
          "name": "investment",
          "type": "uint256"
        },
        {
          "indexed": false,
          "internalType": "uint256",
          "name": "timestamp",
          "type": "uint256"
        }
      ],
      "name": "NewMemo",
      "type": "event"
    },
    {
      "inputs": [
        {
          "internalType": "uint256",
          "name": "",
          "type": "uint256"
        }
      ],
      "name": "Memos",
      "outputs": [
        {
          "internalType": "address",
          "name": "investor",
          "type": "address"
        },
        {
          "internalType": "string",
          "name": "result",
          "type": "string"
        },
        {
          "internalType": "uint256",
          "name": "investment",
          "type": "uint256"
        },
        {
          "internalType": "uint256",
          "name": "timestamp",
          "type": "uint256"
        }
      ],
      "stateMutability": "view",
      "type": "function"
    },
    {
      "inputs": [
        {
          "internalType": "uint256",
          "name": "_minInvestment",
          "type": "uint256"
        },
        {
          "internalType": "uint256",
          "name": "_maxInvestment",
          "type": "uint256"
        }
      ],
      "name": "changeInvestmentLimits",
      "outputs": [],
      "stateMutability": "nonpayable",
      "type": "function"
    },
    {
      "inputs": [],
      "name": "generateRandomNumber",
      "outputs": [
        {
          "internalType": "uint256",
          "name": "",
          "type": "uint256"
        }
      ],
      "stateMutability": "view",
      "type": "function"
    },
    {
      "inputs": [],
      "name": "getMemos",
      "outputs": [
        {
          "components": [
            {
              "internalType": "address",
              "name": "investor",
              "type": "address"
            },
            {
              "internalType": "string",
              "name": "result",
              "type": "string"
            },
            {
              "internalType": "uint256",
              "name": "investment",
              "type": "uint256"
            },
            {
              "internalType": "uint256",
              "name": "timestamp",
              "type": "uint256"
            }
          ],
          "internalType": "struct LaxmiCryptFund.Memo[]",
          "name": "",
          "type": "tuple[]"
        }
      ],
      "stateMutability": "view",
      "type": "function"
    },
    {
      "inputs": [],
      "name": "invest",
      "outputs": [],
      "stateMutability": "payable",
      "type": "function"
    },
    {
      "inputs": [],
      "name": "investors",
      "outputs": [
        {
          "internalType": "uint256",
          "name": "",
          "type": "uint256"
        }
      ],
      "stateMutability": "view",
      "type": "function"
    },
    {
      "inputs": [],
      "name": "maxInvestment",
      "outputs": [
        {
          "internalType": "uint256",
          "name": "",
          "type": "uint256"
        }
      ],
      "stateMutability": "view",
      "type": "function"
    },
    {
      "inputs": [],
      "name": "minInvestment",
      "outputs": [
        {
          "internalType": "uint256",
          "name": "",
          "type": "uint256"
        }
      ],
      "stateMutability": "view",
      "type": "function"
    },
    {
      "inputs": [],
      "name": "owner",
      "outputs": [
        {
          "internalType": "address payable",
          "name": "",
          "type": "address"
        }
      ],
      "stateMutability": "view",
      "type": "function"
    },
    {
      "inputs": [],
      "name": "withdrawFunds",
      "outputs": [],
      "stateMutability": "nonpayable",
      "type": "function"
    }
  ],
  "bytecode": "0x608060405233600360006101000a81548173ffffffffffffffffffffffffffffffffffffffff021916908373ffffffffffffffffffffffffffffffffffffffff16021790555060008081905550655af3107a4000600181905550662386f26fc10000600281905550611446806100766000396000f3fe6080604052600436106100905760003560e01c8063865c517211610059578063865c51721461016b5780638ac27f5f146101965780638ac2c680146101c15780638da5cb5b146101ec578063e8b5e51f1461021757610090565b80622e13161461009557806309ed9d7f146100c057806324600fc3146100e957806376ad31e514610100578063773a115414610140575b600080fd5b3480156100a157600080fd5b506100aa610221565b6040516100b79190610fda565b60405180910390f35b3480156100cc57600080fd5b506100e760048036038101906100e29190610b5f565b610227565b005b3480156100f557600080fd5b506100fe6102c9565b005b34801561010c57600080fd5b5061012760048036038101906101229190610b36565b6103c4565b6040516101379493929190610e54565b60405180910390f35b34801561014c57600080fd5b506101556104ac565b6040516101629190610fda565b60405180910390f35b34801561017757600080fd5b506101806104d0565b60405161018d9190610ea0565b60405180910390f35b3480156101a257600080fd5b506101ab61062b565b6040516101b89190610fda565b60405180910390f35b3480156101cd57600080fd5b506101d6610631565b6040516101e39190610fda565b60405180910390f35b3480156101f857600080fd5b50610201610637565b60405161020e9190610e39565b60405180910390f35b61021f61065d565b005b60025481565b600360009054906101000a900473ffffffffffffffffffffffffffffffffffffffff1673ffffffffffffffffffffffffffffffffffffffff163373ffffffffffffffffffffffffffffffffffffffff16146102b7576040517f08c379a00000000000000000000000000000000000000000000000000000000081526004016102ae90610f02565b60405180910390fd5b81600181905550806002819055505050565b600360009054906101000a900473ffffffffffffffffffffffffffffffffffffffff1673ffffffffffffffffffffffffffffffffffffffff163373ffffffffffffffffffffffffffffffffffffffff1614610359576040517f08c379a000000000000000000000000000000000000000000000000000000000815260040161035090610f7e565b60405180910390fd5b600360009054906101000a900473ffffffffffffffffffffffffffffffffffffffff1673ffffffffffffffffffffffffffffffffffffffff166108fc479081150290604051600060405180830381858888f193505050501580156103c1573d6000803e3d6000fd5b50565b600481815481106103d457600080fd5b90600052602060002090600402016000915090508060000160009054906101000a900473ffffffffffffffffffffffffffffffffffffffff169080600101805461041d9061116a565b80601f01602080910402602001604051908101604052809291908181526020018280546104499061116a565b80156104965780601f1061046b57610100808354040283529160200191610496565b820191906000526020600020905b81548152906001019060200180831161047957829003601f168201915b5050505050908060020154908060030154905084565b600060646001436104bd91906110b5565b4060001c6104cb91906111e5565b905090565b60606004805480602002602001604051908101604052809291908181526020016000905b8282101561062257838290600052602060002090600402016040518060800160405290816000820160009054906101000a900473ffffffffffffffffffffffffffffffffffffffff1673ffffffffffffffffffffffffffffffffffffffff1673ffffffffffffffffffffffffffffffffffffffff16815260200160018201805461057d9061116a565b80601f01602080910402602001604051908101604052809291908181526020018280546105a99061116a565b80156105f65780601f106105cb576101008083540402835291602001916105f6565b820191906000526020600020905b8154815290600101906020018083116105d957829003601f168201915b5050505050815260200160028201548152602001600382015481525050815260200190600101906104f4565b50505050905090565b60005481565b60015481565b600360009054906101000a900473ffffffffffffffffffffffffffffffffffffffff1681565b6001543410156106a2576040517f08c379a000000000000000000000000000000000000000000000000000000000815260040161069990610ee2565b60405180910390fd5b6002543411156106e7576040517f08c379a00000000000000000000000000000000000000000000000000000000081526004016106de90610f5e565b60405180910390fd5b3460026106f4919061105b565b4711610735576040517f08c379a000000000000000000000000000000000000000000000000000000000815260040161072c90610ec2565b60405180910390fd5b600061073f6104ac565b90506032811061090257600460405180608001604052803373ffffffffffffffffffffffffffffffffffffffff1681526020016040518060400160405280600781526020017f646f75626c656400000000000000000000000000000000000000000000000000815250815260200134815260200142815250908060018154018082558091505060019003906000526020600020906004020160009091909190915060008201518160000160006101000a81548173ffffffffffffffffffffffffffffffffffffffff021916908373ffffffffffffffffffffffffffffffffffffffff1602179055506020820151816001019080519060200190610843929190610a7e565b50604082015181600201556060820151816003015550503373ffffffffffffffffffffffffffffffffffffffff167fb1e77bdc2186a7f73e83bd4e133eb5ab60eb58f01aa9ad04ea9d8c076d746ab234426040516108a2929190610f9e565b60405180910390a23373ffffffffffffffffffffffffffffffffffffffff166108fc3460026108d1919061105b565b9081150290604051600060405180830381858888f193505050501580156108fc573d6000803e3d6000fd5b50610a64565b600460405180608001604052803373ffffffffffffffffffffffffffffffffffffffff1681526020016040518060400160405280600481526020017f6c6f737400000000000000000000000000000000000000000000000000000000815250815260200134815260200142815250908060018154018082558091505060019003906000526020600020906004020160009091909190915060008201518160000160006101000a81548173ffffffffffffffffffffffffffffffffffffffff021916908373ffffffffffffffffffffffffffffffffffffffff16021790555060208201518160010190805190602001906109fc929190610a7e565b50604082015181600201556060820151816003015550503373ffffffffffffffffffffffffffffffffffffffff167fb1e77bdc2186a7f73e83bd4e133eb5ab60eb58f01aa9ad04ea9d8c076d746ab23442604051610a5b929190610f22565b60405180910390a25b600080815480929190610a769061119c565b919050555050565b828054610a8a9061116a565b90600052602060002090601f016020900481019282610aac5760008555610af3565b82601f10610ac557805160ff1916838001178555610af3565b82800160010185558215610af3579182015b82811115610af2578251825591602001919060010190610ad7565b5b509050610b009190610b04565b5090565b5b80821115610b1d576000816000905550600101610b05565b5090565b600081359050610b30816113f9565b92915050565b600060208284031215610b4857600080fd5b6000610b5684828501610b21565b91505092915050565b60008060408385031215610b7257600080fd5b6000610b8085828601610b21565b9250506020610b9185828601610b21565b9150509250929050565b6000610ba78383610db8565b905092915050565b610bb8816110fb565b82525050565b610bc7816110e9565b82525050565b610bd6816110e9565b82525050565b6000610be782611005565b610bf18185611028565b935083602082028501610c0385610ff5565b8060005b85811015610c3f5784840389528151610c208582610b9b565b9450610c2b8361101b565b925060208a01995050600181019050610c07565b50829750879550505050505092915050565b6000610c5c82611010565b610c668185611039565b9350610c76818560208601611137565b610c7f816112a3565b840191505092915050565b6000610c9582611010565b610c9f818561104a565b9350610caf818560208601611137565b610cb8816112a3565b840191505092915050565b6000610cd060148361104a565b9150610cdb826112b4565b602082019050919050565b6000610cf360138361104a565b9150610cfe826112dd565b602082019050919050565b6000610d1660288361104a565b9150610d2182611306565b604082019050919050565b6000610d3960048361104a565b9150610d4482611355565b602082019050919050565b6000610d5c60138361104a565b9150610d678261137e565b602082019050919050565b6000610d7f601e8361104a565b9150610d8a826113a7565b602082019050919050565b6000610da260078361104a565b9150610dad826113d0565b602082019050919050565b6000608083016000830151610dd06000860182610bbe565b5060208301518482036020860152610de88282610c51565b9150506040830151610dfd6040860182610e1b565b506060830151610e106060860182610e1b565b508091505092915050565b610e248161112d565b82525050565b610e338161112d565b82525050565b6000602082019050610e4e6000830184610baf565b92915050565b6000608082019050610e696000830187610bcd565b8181036020830152610e7b8186610c8a565b9050610e8a6040830185610e2a565b610e976060830184610e2a565b95945050505050565b60006020820190508181036000830152610eba8184610bdc565b905092915050565b60006020820190508181036000830152610edb81610cc3565b9050919050565b60006020820190508181036000830152610efb81610ce6565b9050919050565b60006020820190508181036000830152610f1b81610d09565b9050919050565b60006060820190508181036000830152610f3b81610d2c565b9050610f4a6020830185610e2a565b610f576040830184610e2a565b9392505050565b60006020820190508181036000830152610f7781610d4f565b9050919050565b60006020820190508181036000830152610f9781610d72565b9050919050565b60006060820190508181036000830152610fb781610d95565b9050610fc66020830185610e2a565b610fd36040830184610e2a565b9392505050565b6000602082019050610fef6000830184610e2a565b92915050565b6000819050602082019050919050565b600081519050919050565b600081519050919050565b6000602082019050919050565b600082825260208201905092915050565b600082825260208201905092915050565b600082825260208201905092915050565b60006110668261112d565b91506110718361112d565b9250817fffffffffffffffffffffffffffffffffffffffffffffffffffffffffffffffff04831182151516156110aa576110a9611216565b5b828202905092915050565b60006110c08261112d565b91506110cb8361112d565b9250828210156110de576110dd611216565b5b828203905092915050565b60006110f48261110d565b9050919050565b60006111068261110d565b9050919050565b600073ffffffffffffffffffffffffffffffffffffffff82169050919050565b6000819050919050565b60005b8381101561115557808201518184015260208101905061113a565b83811115611164576000848401525b50505050565b6000600282049050600182168061118257607f821691505b6020821081141561119657611195611274565b5b50919050565b60006111a78261112d565b91507fffffffffffffffffffffffffffffffffffffffffffffffffffffffffffffffff8214156111da576111d9611216565b5b600182019050919050565b60006111f08261112d565b91506111fb8361112d565b92508261120b5761120a611245565b5b828206905092915050565b7f4e487b7100000000000000000000000000000000000000000000000000000000600052601160045260246000fd5b7f4e487b7100000000000000000000000000000000000000000000000000000000600052601260045260246000fd5b7f4e487b7100000000000000000000000000000000000000000000000000000000600052602260045260246000fd5b6000601f19601f8301169050919050565b7f5765206a757374207363616d6d656420796f7521000000000000000000000000600082015250565b7f546f6f206c65737320746f20696e766573742e00000000000000000000000000600082015250565b7f596f752063616e6e6f74206368616e67652074686520696e766573746d656e7460008201527f206c696d6974732e000000000000000000000000000000000000000000000000602082015250565b7f6c6f737400000000000000000000000000000000000000000000000000000000600082015250565b7f546f6f206d75636820746f20696e766573742e00000000000000000000000000600082015250565b7f4f6e6c79206f776e65722063616e2077697468647261772066756e64732e0000600082015250565b7f646f75626c656400000000000000000000000000000000000000000000000000600082015250565b6114028161112d565b811461140d57600080fd5b5056fea26469706673582212205895c9ce451cffc95e16611ac533cd4979749f8b9b188aeb14955981cf6495d864736f6c63430008040033",
  "linkReferences": {},
  "deployedLinkReferences": {}
}