{
  "_format": "hh-sol-artifact-1",
  "contractName": "LaxmiCryptFund",
  "sourceName": "contracts/LaxmiCryptFund.sol",
  "abi": [
    {
      "inputs": [],
      "stateMutability": "payable",
      "type": "constructor"
    },
    {
      "anonymous": false,
      "inputs": [
        {
          "indexed": true,
          "internalType": "address",
          "name": "investor",
          "type": "address"
        },
        {
          "indexed": false,
          "internalType": "uint256",
          "name": "luckyNumber",
          "type": "uint256"
        },
        {
          "indexed": false,
          "internalType": "string",
          "name": "result",
          "type": "string"
        },
        {
          "indexed": false,
          "internalType": "uint256",
          "name": "investment",
          "type": "uint256"
        },
        {
          "indexed": false,
          "internalType": "uint256",
          "name": "timestamp",
          "type": "uint256"
        }
      ],
      "name": "NewMemo",
      "type": "event"
    },
    {
      "inputs": [
        {
          "internalType": "uint256",
          "name": "",
          "type": "uint256"
        }
      ],
      "name": "Memos",
      "outputs": [
        {
          "internalType": "address",
          "name": "investor",
          "type": "address"
        },
        {
          "internalType": "uint256",
          "name": "luckyNumber",
          "type": "uint256"
        },
        {
          "internalType": "string",
          "name": "result",
          "type": "string"
        },
        {
          "internalType": "uint256",
          "name": "investment",
          "type": "uint256"
        },
        {
          "internalType": "uint256",
          "name": "timestamp",
          "type": "uint256"
        }
      ],
      "stateMutability": "view",
      "type": "function"
    },
    {
      "inputs": [
        {
          "internalType": "uint256",
          "name": "_minInvestment",
          "type": "uint256"
        },
        {
          "internalType": "uint256",
          "name": "_maxInvestment",
          "type": "uint256"
        }
      ],
      "name": "changeInvestmentLimits",
      "outputs": [],
      "stateMutability": "nonpayable",
      "type": "function"
    },
    {
      "inputs": [],
      "name": "fundContract",
      "outputs": [],
      "stateMutability": "payable",
      "type": "function"
    },
    {
      "inputs": [],
      "name": "getAll",
      "outputs": [
        {
          "internalType": "uint256",
          "name": "",
          "type": "uint256"
        },
        {
          "internalType": "uint256",
          "name": "",
          "type": "uint256"
        },
        {
          "internalType": "uint256",
          "name": "",
          "type": "uint256"
        },
        {
          "internalType": "uint256",
          "name": "",
          "type": "uint256"
        },
        {
          "internalType": "uint256",
          "name": "",
          "type": "uint256"
        },
        {
          "components": [
            {
              "internalType": "address",
              "name": "investor",
              "type": "address"
            },
            {
              "internalType": "uint256",
              "name": "luckyNumber",
              "type": "uint256"
            },
            {
              "internalType": "string",
              "name": "result",
              "type": "string"
            },
            {
              "internalType": "uint256",
              "name": "investment",
              "type": "uint256"
            },
            {
              "internalType": "uint256",
              "name": "timestamp",
              "type": "uint256"
            }
          ],
          "internalType": "struct LaxmiCryptFund.Memo[]",
          "name": "",
          "type": "tuple[]"
        }
      ],
      "stateMutability": "view",
      "type": "function"
    },
    {
      "inputs": [],
      "name": "getBalance",
      "outputs": [
        {
          "internalType": "uint256",
          "name": "",
          "type": "uint256"
        }
      ],
      "stateMutability": "view",
      "type": "function"
    },
    {
      "inputs": [],
      "name": "getLost",
      "outputs": [
        {
          "internalType": "uint256",
          "name": "",
          "type": "uint256"
        }
      ],
      "stateMutability": "view",
      "type": "function"
    },
    {
      "inputs": [],
      "name": "getMemos",
      "outputs": [
        {
          "components": [
            {
              "internalType": "address",
              "name": "investor",
              "type": "address"
            },
            {
              "internalType": "uint256",
              "name": "luckyNumber",
              "type": "uint256"
            },
            {
              "internalType": "string",
              "name": "result",
              "type": "string"
            },
            {
              "internalType": "uint256",
              "name": "investment",
              "type": "uint256"
            },
            {
              "internalType": "uint256",
              "name": "timestamp",
              "type": "uint256"
            }
          ],
          "internalType": "struct LaxmiCryptFund.Memo[]",
          "name": "",
          "type": "tuple[]"
        }
      ],
      "stateMutability": "view",
      "type": "function"
    },
    {
      "inputs": [],
      "name": "getWon",
      "outputs": [
        {
          "internalType": "uint256",
          "name": "",
          "type": "uint256"
        }
      ],
      "stateMutability": "view",
      "type": "function"
    },
    {
      "inputs": [],
      "name": "invest",
      "outputs": [],
      "stateMutability": "payable",
      "type": "function"
    },
    {
      "inputs": [],
      "name": "investors",
      "outputs": [
        {
          "internalType": "uint256",
          "name": "",
          "type": "uint256"
        }
      ],
      "stateMutability": "view",
      "type": "function"
    },
    {
      "inputs": [],
      "name": "investorsLost",
      "outputs": [
        {
          "internalType": "uint256",
          "name": "",
          "type": "uint256"
        }
      ],
      "stateMutability": "view",
      "type": "function"
    },
    {
      "inputs": [],
      "name": "investorsWon",
      "outputs": [
        {
          "internalType": "uint256",
          "name": "",
          "type": "uint256"
        }
      ],
      "stateMutability": "view",
      "type": "function"
    },
    {
      "inputs": [],
      "name": "maxInvestment",
      "outputs": [
        {
          "internalType": "uint256",
          "name": "",
          "type": "uint256"
        }
      ],
      "stateMutability": "view",
      "type": "function"
    },
    {
      "inputs": [],
      "name": "minInvestment",
      "outputs": [
        {
          "internalType": "uint256",
          "name": "",
          "type": "uint256"
        }
      ],
      "stateMutability": "view",
      "type": "function"
    },
    {
      "inputs": [],
      "name": "owner",
      "outputs": [
        {
          "internalType": "address payable",
          "name": "",
          "type": "address"
        }
      ],
      "stateMutability": "view",
      "type": "function"
    },
    {
      "inputs": [],
      "name": "randomNonce",
      "outputs": [
        {
          "internalType": "uint256",
          "name": "",
          "type": "uint256"
        }
      ],
      "stateMutability": "view",
      "type": "function"
    },
    {
      "inputs": [],
      "name": "withdrawFunds",
      "outputs": [],
      "stateMutability": "nonpayable",
      "type": "function"
    }
  ],
  "bytecode": "0x608060405233600460006101000a81548173ffffffffffffffffffffffffffffffffffffffff021916908373ffffffffffffffffffffffffffffffffffffffff1602179055506000808190555066038d7ea4c6800060018190555067016345785d8a000060028190555060016003819055506000600581905550600060068190555061199c806100906000396000f3fe6080604052600436106100fd5760003560e01c806376ad31e5116100955780638da5cb5b116100645780638da5cb5b1461030b578063bc8c610514610336578063bd097e2114610361578063e8b5e51f1461036b578063fc15e4b814610375576100fd565b806376ad31e514610249578063865c51721461028a5780638ac27f5f146102b55780638ac2c680146102e0576100fd565b806324600fc3116100d157806324600fc3146101ac57806339988a55146101c357806353ed5143146101ee5780636c70c2e11461021e576100fd565b80622e1316146101025780630724dd811461012d57806309ed9d7f1461015857806312065fe014610181575b600080fd5b34801561010e57600080fd5b506101176103a0565b6040516101249190611435565b60405180910390f35b34801561013957600080fd5b506101426103a6565b60405161014f9190611435565b60405180910390f35b34801561016457600080fd5b5061017f600480360381019061017a9190610f7a565b6103ac565b005b34801561018d57600080fd5b5061019661044e565b6040516101a39190611435565b60405180910390f35b3480156101b857600080fd5b506101c1610456565b005b3480156101cf57600080fd5b506101d8610551565b6040516101e59190611435565b60405180910390f35b3480156101fa57600080fd5b50610203610557565b604051610215969594939291906114e4565b60405180910390f35b34801561022a57600080fd5b506102336106e5565b6040516102409190611435565b60405180910390f35b34801561025557600080fd5b50610270600480360381019061026b9190610f51565b6106ef565b6040516102819594939291906112f9565b60405180910390f35b34801561029657600080fd5b5061029f6107dd565b6040516102ac9190611353565b60405180910390f35b3480156102c157600080fd5b506102ca610942565b6040516102d79190611435565b60405180910390f35b3480156102ec57600080fd5b506102f5610948565b6040516103029190611435565b60405180910390f35b34801561031757600080fd5b5061032061094e565b60405161032d91906112de565b60405180910390f35b34801561034257600080fd5b5061034b610974565b6040516103589190611435565b60405180910390f35b61036961097e565b005b6103736109c3565b005b34801561038157600080fd5b5061038a610e38565b6040516103979190611435565b60405180910390f35b60025481565b60055481565b600460009054906101000a900473ffffffffffffffffffffffffffffffffffffffff1673ffffffffffffffffffffffffffffffffffffffff163373ffffffffffffffffffffffffffffffffffffffff161461043c576040517f08c379a0000000000000000000000000000000000000000000000000000000008152600401610433906113b5565b60405180910390fd5b81600181905550806002819055505050565b600047905090565b600460009054906101000a900473ffffffffffffffffffffffffffffffffffffffff1673ffffffffffffffffffffffffffffffffffffffff163373ffffffffffffffffffffffffffffffffffffffff16146104e6576040517f08c379a00000000000000000000000000000000000000000000000000000000081526004016104dd906113f5565b60405180910390fd5b600460009054906101000a900473ffffffffffffffffffffffffffffffffffffffff1673ffffffffffffffffffffffffffffffffffffffff166108fc479081150290604051600060405180830381858888f1935050505015801561054e573d6000803e3d6000fd5b50565b60035481565b60008060008060006060600054600154600254600554600654600780805480602002602001604051908101604052809291908181526020016000905b828210156106cb57838290600052602060002090600502016040518060a00160405290816000820160009054906101000a900473ffffffffffffffffffffffffffffffffffffffff1673ffffffffffffffffffffffffffffffffffffffff1673ffffffffffffffffffffffffffffffffffffffff168152602001600182015481526020016002820180546106269061168d565b80601f01602080910402602001604051908101604052809291908181526020018280546106529061168d565b801561069f5780601f106106745761010080835404028352916020019161069f565b820191906000526020600020905b81548152906001019060200180831161068257829003601f168201915b505050505081526020016003820154815260200160048201548152505081526020019060010190610593565b505050509050955095509550955095509550909192939495565b6000600654905090565b600781815481106106ff57600080fd5b90600052602060002090600502016000915090508060000160009054906101000a900473ffffffffffffffffffffffffffffffffffffffff169080600101549080600201805461074e9061168d565b80601f016020809104026020016040519081016040528092919081815260200182805461077a9061168d565b80156107c75780601f1061079c576101008083540402835291602001916107c7565b820191906000526020600020905b8154815290600101906020018083116107aa57829003601f168201915b5050505050908060030154908060040154905085565b60606007805480602002602001604051908101604052809291908181526020016000905b8282101561093957838290600052602060002090600502016040518060a00160405290816000820160009054906101000a900473ffffffffffffffffffffffffffffffffffffffff1673ffffffffffffffffffffffffffffffffffffffff1673ffffffffffffffffffffffffffffffffffffffff168152602001600182015481526020016002820180546108949061168d565b80601f01602080910402602001604051908101604052809291908181526020018280546108c09061168d565b801561090d5780601f106108e25761010080835404028352916020019161090d565b820191906000526020600020905b8154815290600101906020018083116108f057829003601f168201915b505050505081526020016003820154815260200160048201548152505081526020019060010190610801565b50505050905090565b60005481565b60015481565b600460009054906101000a900473ffffffffffffffffffffffffffffffffffffffff1681565b6000600554905090565b600034116109c1576040517f08c379a00000000000000000000000000000000000000000000000000000000081526004016109b890611415565b60405180910390fd5b565b600154341015610a08576040517f08c379a00000000000000000000000000000000000000000000000000000000081526004016109ff90611395565b60405180910390fd5b600254341115610a4d576040517f08c379a0000000000000000000000000000000000000000000000000000000008152600401610a44906113d5565b60405180910390fd5b346002610a5a91906115b2565b4711610a9b576040517f08c379a0000000000000000000000000000000000000000000000000000000008152600401610a9290611375565b60405180910390fd5b6000610aa5610e3e565b905060328110610c925760056000815480929190610ac2906116bf565b919050555060076040518060a001604052803373ffffffffffffffffffffffffffffffffffffffff1681526020018381526020016040518060400160405280600781526020017f646f75626c656400000000000000000000000000000000000000000000000000815250815260200134815260200142815250908060018154018082558091505060019003906000526020600020906005020160009091909190915060008201518160000160006101000a81548173ffffffffffffffffffffffffffffffffffffffff021916908373ffffffffffffffffffffffffffffffffffffffff160217905550602082015181600101556040820151816002019080519060200190610bd1929190610e99565b50606082015181600301556080820151816004015550503373ffffffffffffffffffffffffffffffffffffffff167f2a9ae9e703048cf977aef875dd5904dc0bbefa58db20b84d115675b3d1cd78a9823442604051610c329392919061149a565b60405180910390a23373ffffffffffffffffffffffffffffffffffffffff166108fc346002610c6191906115b2565b9081150290604051600060405180830381858888f19350505050158015610c8c573d6000803e3d6000fd5b50610e1e565b60066000815480929190610ca5906116bf565b919050555060076040518060a001604052803373ffffffffffffffffffffffffffffffffffffffff1681526020018381526020016040518060400160405280600481526020017f6c6f737400000000000000000000000000000000000000000000000000000000815250815260200134815260200142815250908060018154018082558091505060019003906000526020600020906005020160009091909190915060008201518160000160006101000a81548173ffffffffffffffffffffffffffffffffffffffff021916908373ffffffffffffffffffffffffffffffffffffffff160217905550602082015181600101556040820151816002019080519060200190610db4929190610e99565b50606082015181600301556080820151816004015550503373ffffffffffffffffffffffffffffffffffffffff167f2a9ae9e703048cf977aef875dd5904dc0bbefa58db20b84d115675b3d1cd78a9823442604051610e1593929190611450565b60405180910390a25b600080815480929190610e30906116bf565b919050555050565b60065481565b600060036000815480929190610e53906116bf565b919050555060644244600354604051602001610e71939291906112a1565b6040516020818303038152906040528051906020012060001c610e949190611712565b905090565b828054610ea59061168d565b90600052602060002090601f016020900481019282610ec75760008555610f0e565b82601f10610ee057805160ff1916838001178555610f0e565b82800160010185558215610f0e579182015b82811115610f0d578251825591602001919060010190610ef2565b5b509050610f1b9190610f1f565b5090565b5b80821115610f38576000816000905550600101610f20565b5090565b600081359050610f4b8161194f565b92915050565b600060208284031215610f6357600080fd5b6000610f7184828501610f3c565b91505092915050565b60008060408385031215610f8d57600080fd5b6000610f9b85828601610f3c565b9250506020610fac85828601610f3c565b9150509250929050565b6000610fc283836111f6565b905092915050565b610fd38161161e565b82525050565b610fe28161160c565b82525050565b610ff18161160c565b82525050565b60006110028261155c565b61100c818561157f565b93508360208202850161101e8561154c565b8060005b8581101561105a578484038952815161103b8582610fb6565b945061104683611572565b925060208a01995050600181019050611022565b50829750879550505050505092915050565b600061107782611567565b6110818185611590565b935061109181856020860161165a565b61109a816117d0565b840191505092915050565b60006110b082611567565b6110ba81856115a1565b93506110ca81856020860161165a565b6110d3816117d0565b840191505092915050565b60006110eb6014836115a1565b91506110f6826117e1565b602082019050919050565b600061110e6013836115a1565b91506111198261180a565b602082019050919050565b60006111316028836115a1565b915061113c82611833565b604082019050919050565b60006111546004836115a1565b915061115f82611882565b602082019050919050565b60006111776013836115a1565b9150611182826118ab565b602082019050919050565b600061119a601e836115a1565b91506111a5826118d4565b602082019050919050565b60006111bd600f836115a1565b91506111c8826118fd565b602082019050919050565b60006111e06007836115a1565b91506111eb82611926565b602082019050919050565b600060a08301600083015161120e6000860182610fd9565b506020830151611221602086018261126c565b5060408301518482036040860152611239828261106c565b915050606083015161124e606086018261126c565b506080830151611261608086018261126c565b508091505092915050565b61127581611650565b82525050565b61128481611650565b82525050565b61129b61129682611650565b611708565b82525050565b60006112ad828661128a565b6020820191506112bd828561128a565b6020820191506112cd828461128a565b602082019150819050949350505050565b60006020820190506112f36000830184610fca565b92915050565b600060a08201905061130e6000830188610fe8565b61131b602083018761127b565b818103604083015261132d81866110a5565b905061133c606083018561127b565b611349608083018461127b565b9695505050505050565b6000602082019050818103600083015261136d8184610ff7565b905092915050565b6000602082019050818103600083015261138e816110de565b9050919050565b600060208201905081810360008301526113ae81611101565b9050919050565b600060208201905081810360008301526113ce81611124565b9050919050565b600060208201905081810360008301526113ee8161116a565b9050919050565b6000602082019050818103600083015261140e8161118d565b9050919050565b6000602082019050818103600083015261142e816111b0565b9050919050565b600060208201905061144a600083018461127b565b92915050565b6000608082019050611465600083018661127b565b818103602083015261147681611147565b9050611485604083018561127b565b611492606083018461127b565b949350505050565b60006080820190506114af600083018661127b565b81810360208301526114c0816111d3565b90506114cf604083018561127b565b6114dc606083018461127b565b949350505050565b600060c0820190506114f9600083018961127b565b611506602083018861127b565b611513604083018761127b565b611520606083018661127b565b61152d608083018561127b565b81810360a083015261153f8184610ff7565b9050979650505050505050565b6000819050602082019050919050565b600081519050919050565b600081519050919050565b6000602082019050919050565b600082825260208201905092915050565b600082825260208201905092915050565b600082825260208201905092915050565b60006115bd82611650565b91506115c883611650565b9250817fffffffffffffffffffffffffffffffffffffffffffffffffffffffffffffffff048311821515161561160157611600611743565b5b828202905092915050565b600061161782611630565b9050919050565b600061162982611630565b9050919050565b600073ffffffffffffffffffffffffffffffffffffffff82169050919050565b6000819050919050565b60005b8381101561167857808201518184015260208101905061165d565b83811115611687576000848401525b50505050565b600060028204905060018216806116a557607f821691505b602082108114156116b9576116b86117a1565b5b50919050565b60006116ca82611650565b91507fffffffffffffffffffffffffffffffffffffffffffffffffffffffffffffffff8214156116fd576116fc611743565b5b600182019050919050565b6000819050919050565b600061171d82611650565b915061172883611650565b92508261173857611737611772565b5b828206905092915050565b7f4e487b7100000000000000000000000000000000000000000000000000000000600052601160045260246000fd5b7f4e487b7100000000000000000000000000000000000000000000000000000000600052601260045260246000fd5b7f4e487b7100000000000000000000000000000000000000000000000000000000600052602260045260246000fd5b6000601f19601f8301169050919050565b7f5765206a757374207363616d6d656420796f7521000000000000000000000000600082015250565b7f546f6f206c65737320746f20696e766573742e00000000000000000000000000600082015250565b7f596f752063616e6e6f74206368616e67652074686520696e766573746d656e7460008201527f206c696d6974732e000000000000000000000000000000000000000000000000602082015250565b7f6c6f737400000000000000000000000000000000000000000000000000000000600082015250565b7f546f6f206d75636820746f20696e766573742e00000000000000000000000000600082015250565b7f4f6e6c79206f776e65722063616e2077697468647261772066756e64732e0000600082015250565b7f496e76616c696420416d6f756e742e0000000000000000000000000000000000600082015250565b7f646f75626c656400000000000000000000000000000000000000000000000000600082015250565b61195881611650565b811461196357600080fd5b5056fea26469706673582212206a4f1e5e46cfff0c6289d4f1b440ea49bad453fbec198cf8006e923a3010ca6064736f6c63430008040033",
  "linkReferences": {},
  "deployedLinkReferences": {}
}